:1000000035C100004FC100004DC100004BC10000D0
:1000100049C1000047C1000045C1000043C10000C4
:1000200041C100003FC100003DC100000C943F14DD
:1000300039C1000037C1000035C100000C94970998
:1000400031C100002FC100002DC100007EC300009F
:1000500029C1000027C1000025C100007FC10000A8
:1000600021C100001FC100001DC100001BC1000014
:1000700019C1000017C1000015C1000013C1000024
:1000800011C100000FC100000DC100000BC1000034
:1000900009C1000007C10000120110010200001098
:1000A000D016A40B09010102000104030904120384
:1000B0006500480061004A006F002E006400650082
:1000C000000022036500480061004A006F00200024
:1000D0005500530042003200530065007200690071
:1000E00061006C00000012011001FF000010EB0322
:1000F000042109010102030104030904120365003C
:10010000480061004A006F002E0064006500000096
:1001100018034100560052004900530050002000CF
:100120006D006B0049004900000009000A000A0048
:100130000B000C000D000D000E000F001000100051
:100140001200130013001400160016001800190006
:100150001A001C001D001F002000220023002500A3
:10016000270029002B002E00300032003400370019
:100170003A003D004000430046004A004E00520055
:1001800055005A005E00630068006D00730078003F
:100190007E0084008B0091009900A000A900B100AE
:1001A000B900C300CC00D600E100EC00F700040168
:1001B00011011E012D013B014B015B016C017D0111
:1001C0009101A501BA01CF01E601FE01160231023B
:1001D0004C026A028802A802CA02ED021103380327
:1001E00060038B03B803E70318044B048104B904CC
:1001F000F50434057505B90501064E069D06EF06A2
:100200004807A30704086508D0084009B6092B0A67
:10021000AB0A300BC30B510CEE0C8F0D400EF60EDB
:10022000AF0F681047111412F512ED13E214F01518
:10023000F9161B185C19911AE51B251D831E032056
:10024000AB21302332250F27F128F82A1A2D492F08
:10025000A1311434A1364539173C1A3F3442604568
:10026000DF48704C400041014243030011241FBE8F
:10027000CFEFD4E0DEBFCDBF11E0A0E0B1E0E4E617
:10028000FFE202C005900D92AA3DB107D9F713E035
:10029000AAEDB1E001C01D92A630B107E1F751D13E
:1002A0000C94B017ADCEFC018FB7F89471836083C6
:1002B0007383628375836483640F751F778366839A
:1002C00051874087138612868FBF0895CF93DF939F
:1002D000EC01E881F9816083888199810196998395
:1002E00088832E813F818217930721F48C819D8121
:1002F000998388832FB7F8948A859B8501969B877D
:100300008A872FBFDF91CF910895CF93DF93EC01C0
:10031000EA81FB813191FB83EA838E819F81E8171B
:10032000F90721F48C819D819B838A832FB7F894F0
:100330008A859B8501979B878A872FBF832FDF91B3
:10034000CF9108952E9808952E9A0895FC01208942
:1003500020FF02C05F9808955F9A08951F920F9240
:100360000FB60F9211242F933F934F935F936F9388
:100370007F938F939F93AF93BF93EF93FF9360917E
:10038000CE008EB3843089F48FB7F8942091710237
:10039000309172028FBF80916F0290917002281786
:1003A000390719F087E692E091DFFF91EF91BF9155
:1003B000AF919F918F917F916F915F914F913F91FD
:1003C0002F910F900FBE0F901F9018951F93FC0157
:1003D000818D813019F0823019F404C010E303C01C
:1003E00010E001C010E2808D823009F41860828D27
:1003F000873031F0883031F0863029F4126003C044
:10040000146001C016605B9A1092C9001092C80077
:100410001092CA002489358946895789CA01B901D1
:10042000969587957795679560587B47814E9F4F46
:100430000E947417215030403093CD002093CC009F
:100440001093CA0082E08093C80088E98093C900B5
:100450005B981F910895FC018091DA01882311F4C3
:10046000CF0100C1CF012FC18091DA01882321F48F
:1004700080E091E00C94C61608951F938091DA01F4
:100480008823A9F480E091E00E949F16182F117034
:100490008BED91E067EE71E040E850E004DF87E625
:1004A00092E063E772E040E850E0FDDE07C082E0E2
:1004B00060E842E30E945C13182F1170112311F0C1
:1004C0002E9801C02E9A1F91089584B7877F84BF0C
:1004D00088E10FB6F89480936000109260000FBE20
:1004E000E0EDF0E0808185608083E1E6F0E080E887
:1004F000808310825098589A00000000000000008D
:100500000000000000000000000089B180958170AB
:100510008093DA015F9A579A84B1817E84B9269AD2
:100520002E9A0C9430148EB3843051F482E0809370
:10053000E9008091E80082FF03C02E9A1BD12E981B
:1005400008951F93CF93DF93C0DF8091DA01882352
:1005500079F48BED91E067EE71E040E850E0A3DEC6
:1005600087E692E063E772E040E850E09CDE01C07D
:100570001BD27894C0E0D0E08091DA01882309F0A2
:1005800066C08FB7F8942091E5013091E6018FBFE6
:100590008091E3019091E4012817390769F080E028
:1005A00091E00E940916BC0197FD06C02E9A8BEDC2
:1005B00091E08CDEC0E0D0E08FB7F894209171021A
:1005C000309172028FBF2115310529F12E9A809149
:1005D00001018F708093E9008091E80080FF19C0CD
:1005E000C9012031310510F08FE090E0182F0FC0C5
:1005F000E0916902F0916A0280E091E060810E94DE
:100600007A161150882329F487E692E07EDE1123C2
:1006100079F7C0E0D0E08091C80085FF13C02FB704
:10062000F8948091E5019091E6012FBF892B51F05C
:100630008BED91E06ADE982F8091C80085FFFCCF9A
:100640009093CE0080E091E00E94631601C06BDFC2
:100650000E94F515219683E0C83ED80709F08CCF9B
:100660002E9888CFDA01F9011082923049F0933048
:1006700069F0913001F5E8E9F0E022E130E01FC0D7
:100680009083EBE1F1E02EE330E019C0813049F0D6
:10069000813018F0823079F408C0EAEAF0E0849101
:1006A00007C0EEEAF0E0849103C0E2ECF0E0849150
:1006B000282F30E004C0E0E0F0E020E030E0ED93EF
:1006C000FC93C9010895DA01F9011082923049F0D2
:1006D000933069F0913089F5E6EEF0E022E130E008
:1006E00030C09083E9E5F1E020E230E02AC08130BB
:1006F00059F0813028F0823059F08330F1F40EC087
:10070000E8EFF0E0849107C0ECEFF0E0849103C0E3
:10071000E0E1F1E08491282F30E013C0809179016D
:10072000282F30E082E390E0909388018093870146
:1007300082E08083E9E7F1E004C0E0E0F0E020E05F
:1007400030E0ED93FC93C901089578941F920F92C5
:100750000FB60F9211248F938AB5882321F08AB5A2
:1007600081508ABD01C015BC8F910F900FBE0F90B4
:100770001F901895FF920F931F931091F10084E63C
:100780008ABD85E085BD143109F4CBC0153110F563
:100790001A3009F4ADC01B3068F4143038F412304C
:1007A00008F054C0113009F0D5C033C0163009F03C
:1007B000D1C078C0113109F4AFC0123120F410312A
:1007C00009F0C8C0A7C0123109F4AEC0133109F056
:1007D000C1C0A4C0193109F4ACC01A3168F4163193
:1007E00009F49FC0163108F499C0173109F4A1C06B
:1007F000183109F0AFC09AC01D3109F49DC01D31F8
:1008000008F494C0103509F49CC0113509F0A2C059
:1008100095C08091E8008B778093E80082E0809318
:10082000E9008091EC0081608093EC001093F1006E
:100830001092F1008AE08093F10087E991E06AE08C
:1008400070E040E050E00E940A139AC00091F1006D
:10085000123011F0FF2402C0F090F1008091E80006
:100860008B778093E80082E08093E9008091EC0030
:1008700081608093EC001093F100802FB5D012308E
:1008800041F481FF0DC01092F100802F6F2DB4D084
:1008900077C080FF05C01092F100802F9DD06EC000
:1008A00080EC6CC087EF92E064E070E040E050E0E4
:1008B0000E9466128091E8008B778093E80082E0C6
:1008C0008093E9008091EC0081608093EC0080913E
:1008D000F7029091F802A091F902B091FA02B7FFE5
:1008E00003C081E08093F60286E08093F1000FC0A0
:1008F0008091E8008B778093E80082E08093E900A4
:100900008091EC0081608093EC001093F1001092D4
:10091000F10036C06DD439C037D437C0812F04D32D
:1009200034C0812F53D231C002D22FC0812FF7D0D3
:100930002CC0812FAED029C05DD127C00E94410DAF
:1009400024C040D722C08091E8008B778093E800D4
:100950000E94CB138091F2008034A9F38091E800CB
:100960008B778093E80082E08093E9008091EC002F
:1009700081608093EC001093F10089EC8093F1008A
:100980008091E8008E778093E80015BC0E94CB131D
:1009900082E08093E9008091EC008E7F8093EC00F0
:1009A0001F910F91FF9008958BE987BD82E084BD70
:1009B00080936E0039D0EBC4982FE2EAF1E0808199
:1009C000981741F081E0ED3BF80711F03396F7CF2F
:1009D000E0E0F0E0CF010895EFDFFC01009711F4B3
:1009E00080E0089582810895E7DFFC01009711F40B
:1009F00080E00895818108950F931F93182F062F8B
:100A0000DBDFFC01009769F002831E3919F480E0F6
:100A100090E004C0183929F481E090E0602F0E9432
:100A20009E171F910F9108950F931F9380E090E000
:100A30000E949617182F81E090E00E949617082FC9
:100A40001F3F21F08EE9B8DFFC0112830F3F21F038
:100A500088E9B2DFFC0102831F910F910895282FCE
:100A600040EA5FE003C0CA010197F1F7222321F0B9
:100A70008AB521508823B9F70895982F8091C00135
:100A8000882329F09EBD0DB407FEFDCF0895892F60
:100A9000BEC4DF92EF92FF920F931F93DF93CF9329
:100AA00000D000D0CDB7DEB7D82E8E010F5F1F4F1C
:100AB000C80164E070E040E050E00E94B81280910C
:100AC000E8008B778093E80082E08093E9008091D2
:100AD000EC0081608093EC0085E0E82EF12CEC0EB8
:100AE000FD1EF80181918F01C8DF0E151F05C9F7A2
:100AF000D092F1001092F1001092F1008091E80084
:100B00008E778093E8000F900F900F900F90CF9109
:100B1000DF911F910F91FF90EF90DF900895BF92AA
:100B2000CF92DF92EF92FF920F931F93DF93CF93B9
:100B3000CDB7DEB729970FB6F894DEBF0FBECDBF95
:100B4000B82ECE01059665E070E040E050E00E94CE
:100B5000B8128091E8008B778093E80082E0809360
:100B6000E9008091EC0081608093EC008E010A5FC7
:100B70001F4F7E010894E11CF11C9AE0C92ED12C74
:100B8000CC0EDD1EF80190818091C001882331F0E8
:100B90009EBD0DB407FEFDCF8EB502C0892F37D4A0
:100BA000F70181937F010F5F1F4F0C151D0551F752
:100BB000B092F1001092F1008D81FE01E80FF11D5D
:100BC00080818093F1001092F1008091E8008E778F
:100BD0008093E80029960FB6F894DEBF0FBECDBF14
:100BE000CF91DF911F910F91FF90EF90DF90CF9009
:100BF000BF900895EF92FF920F931F93DF93CF93CF
:100C0000CDB7DEB7C250D1400FB6F894DEBF0FBEED
:100C1000CDBFCE01019663E070E040E050E00E945D
:100C2000B81234E0E32EF12CEC0EFD1E6981C701F1
:100C300070E040E050E00E94B8128091E8008B77AD
:100C40008093E80082E08093E9008091EC0081606D
:100C50008093EC008DE18093F1001092F10000E0B0
:100C60000BC08981081728F4F701E00FF11D80817E
:100C700001C080E002DF0F5F8B81081790F310E066
:100C800024E0E22EF12CEC0EFD1E2CC08981909107
:100C9000C001081778F4F701E00FF11D8081992356
:100CA00031F08EBD0DB407FEFDCF8EB501C0AFD3C0
:100CB0000F5F0AC0992331F01EBC0DB407FEFDCFB3
:100CC0008EB502C080E0A3D38093F1008091E8004C
:100CD00085FD07C08091E8008E778093E8000E9430
:100CE000CB131F5F8A81181788F21092F100909140
:100CF000E8008091E8008E778093E80095FD09C0B8
:100D00000E94CB138091E8008E778093E8000E94C8
:100D1000CB13CE5FDE4F0FB6F894DEBF0FBECDBF54
:100D2000CF91DF911F910F91FF90EF900895EF9277
:100D3000FF920F931F93DF93CF9300D000D000D08A
:100D4000CDB7DEB7CE01019666E070E040E050E03E
:100D50000E94B8128091E8008B778093E80082E0CF
:100D60008093E9008091EC0081608093EC008E011B
:100D70000D5F1F4F47E0E42EF12CEC0EFD1EF80135
:100D800081918F017ADE0E151F05C9F78A818823AC
:100D900021F4898164DE90E002C065D3982F82E15E
:100DA0008093F1009093F1008091E8008E7780931A
:100DB000E80026960FB6F894DEBF0FBECDBFCF91E8
:100DC000DF911F910F91FF90EF900895DF92EF92C6
:100DD000FF920F931F93DF93CF9300D00F92CDB765
:100DE000DEB7F82ECE01019663E070E040E050E0FF
:100DF0000E94B81299818A8189839A838091E80040
:100E00008B778093E80082E08093E9008091EC008A
:100E100081608093EC00F092F1001092F10000E00C
:100E200010E068E0D62EEE24E39459C08091F602DB
:100E3000882319F036D31092F6028B811EDE809142
:100E4000F7029091F802A091F902B091FA02892F6D
:100E50009A2FAB2FBB2711DE8091F7020EDE809117
:100E6000C001882331F01EBC0DB407FEFDCF8EB546
:100E700002C080E0CCD28093F1008091E80085FD33
:100E800007C08091E8008E778093E8000E94CB1322
:100E900024E1F21619F48B818D258B8300FD03C0AC
:100EA00086E1F816D1F48091F7029091F802A091B2
:100EB000F902B091FA020196A11DB11D8093F702CB
:100EC0009093F802A093F902B093FA0226E1F21689
:100ED00021F0892B11F4E092F6020F5F1F4F8981F8
:100EE0009A810817190708F4A1CF1092F100909188
:100EF000E8008091E8008E778093E80095FD09C0B6
:100F00000E94CB138091E8008E778093E8000E94C6
:100F1000CB130F900F900F90CF91DF911F910F91F6
:100F2000FF90EF90DF9008954F925F926F927F92C3
:100F30008F929F92AF92BF92CF92DF92EF92FF92E9
:100F40000F931F93DF93CF93CDB7DEB7C950D14036
:100F50000FB6F894DEBF0FBECDBF182FCE0101969D
:100F600069E070E040E050E00E94B8126A81798147
:100F700081E06130780798F08091E8008B7780936A
:100F8000E80082E08093E9008091EC00816080932A
:100F9000EC001093F10080EC8093F100D8C07A83CC
:100FA0006983CE010A9640E050E00E94B812898120
:100FB0009A810A968F739070892B39F48091E8009A
:100FC0008B778093E8000E94CB138091E8008B77A9
:100FD0008093E80082E08093E9008091EC008160DA
:100FE0008093EC00133111F4888401C089846090EF
:100FF000F7027090F802EE24FF24FAE0AF2EB12C35
:10100000AC0EBD1ECC24DD24E8E04E2E55245394B6
:101010006DC0F50190800B818091F602882319F054
:1010200040D21092F6028D8128DD8091F7029091D6
:10103000F802A091F902B091FA02892F9A2FAB2FF2
:10104000BB271BDD8091F70218DD892D16DD1331DA
:1010500019F48D8184258D83E114F10481F49814B1
:1010600071F0C0FE05C0133119F48F81886002C091
:101070008F81877F8F83E090F702F090F80200FD68
:1010800012C0E114F10421F403FD02C0097F0260E3
:10109000802FB701482D2C810F810CD2282F882357
:1010A00061F5EE24FF24C0FC02C01531C9F4809123
:1010B000F7029091F802A091F902B091FA0201961C
:1010C000A11DB11D8093F7029093F802A093F9023D
:1010D000B093FA02133121F4892B11F45092F602E5
:1010E0000894A11CB11C0894C11CD11C89819A814F
:1010F000C816D90608F48DCF20E08B8187FF23C066
:101100008E81BBDC872DB9DC862DB7DC80E0B5DCB9
:101110008B8185FF06C0E114F10419F48F7C806196
:101120008B838B81B701482D2C810F81C3D1282F50
:10113000133149F48091F7029091F802892B19F448
:1011400081E08093F6021093F1002093F1008091EA
:10115000E8008E778093E800C75FDE4F0FB6F89403
:10116000DEBF0FBECDBFCF91DF911F910F91FF90DA
:10117000EF90DF90CF90BF90AF909F908F907F9037
:101180006F905F904F9008950F931F93DF93CF93CD
:1011900000D0CDB7DEB7CE01019662E070E040E04E
:1011A00050E00E94B81208EE10E0F80180818B77C1
:1011B000808382E08093E900ECEEF0E08081816042
:1011C000808389814CDC80E0BCD1F5D08A8147DC0A
:1011D000E1EFF0E081E180831082F80180818E7779
:1011E00080830F900F90CF91DF911F910F91089501
:1011F0008F929F92AF92BF92CF92DF92EF92FF9227
:101200000F931F93DF93CF93CDB7DEB72F970FB612
:10121000F894DEBF0FBECDBF84E962E3EDDBCE0103
:1012200005966BE070E040E050E00E94B8128091BB
:10123000E8008B778093E80082E08093E90080915A
:10124000EC0081608093EC001092F7021092F8029B
:101250001092F9021092FA028F8101DC7ED181E0B6
:1012600070D18E81FCDBBCE08B2E912C8C0E9D1EF0
:101270005E010894A11CB11CA0E1CA2ED12CCC0E99
:10128000DD1E2AC08985EBDBF80190818091C001C9
:10129000882331F09EBD0DB407FEFDCF8EB502C090
:1012A000892FB5D0F70181937F010F5F1F4F0C1578
:1012B0001D0541F78B858823D1F0FE01E80FF11D54
:1012C00090818A85981799F080E03BD18E81C7DBA9
:1012D00081E037D18E81C3DB9885992351F08AB59F
:1012E000882339F09150988784017501CBCF90E025
:1012F00001C090EC80E18093F1009093F100809127
:10130000E8008E778093E8002F960FB6F894DEBF42
:101310000FBECDBFCF91DF911F910F91FF90EF9046
:10132000DF90CF90BF90AF909F908F9008951F92C5
:101330000F920FB60F9211248F93199908C08091C4
:10134000F30287FF02C02A9A1BC02A9819C0809115
:10135000F302880F8093F3028091F402815080930E
:10136000F4028091F402882321F41092810082E03B
:1013700086BB1B9B05C08091F30281608093F302C2
:10138000199A8F910F900FBE0F901F9018953E9A4B
:1013900010926F00109285001092840081E090E01E
:1013A000909389008093880080E48093800089E096
:1013B0008093810008958091C001882349F084B111
:1013C000897F84B985B1867F85B91CBC1DBC089511
:1013D00084B1897F84B985B1867F85B9D8CF92E001
:1013E00090936F001092850010928400E82FF0E037
:1013F000EE0FFF1FE45EFE4F85919491909389005C
:10140000809388001092800010928100089580934C
:10141000F30288E08093F4028091F30287FF02C018
:101420002A9A01C02A9810928500109284008AE0BE
:10143000809381008091F402882319F08AB5882373
:10144000C9F72A9A109281008091F3020895982F8B
:101450008091C001882329F09EBD0DB407FEFDCF09
:101460000895892FD4CF80EFF2DF80E0F0DF80E0B5
:10147000EEDF8091C001882331F01EBC0DB407FE61
:10148000FDCF8EB502C080E0C2DF80FF03C08AB509
:10149000882349F78AB5882311F481E8089580E00C
:1014A00008958DE4D4DF80E0D2DF8091F902CFDFB0
:1014B00080E0CDCFEF92FF920F931F937B01142F0B
:1014C00090E08E778830910581F18930910534F470
:1014D0008230910559F0049759F50BC0803291057F
:1014E00041F08034910509F1409711F5822FB7DA68
:1014F0001FC0802FACDF8F2DAADF8E2DA8DF80913B
:10150000C001882331F01EBC0DB407FEFDCF8EB59F
:1015100002C080E07CDF811719F48AB5882349F77F
:101520008AB5882329F490E804C09DDF982F01C074
:1015300090E084E68ABD892F1F910F91FF90EF9074
:101540000895882339F0249A8EE946DA882319F41D
:101550002C9A089524982C98089588E93DDAE82F6C
:101560008730D8F481E08093C001F0E0EC59FD4F62
:10157000E491E061209A289A84B1866084B9239826
:101580002B9AE6FF03C08DB5816002C08DB58E7FBA
:101590008DBD2098E064ECBD08951092C00184B127
:1015A000866084B985B1896085B98E2F18CFAF92D6
:1015B000BF92CF92DF92EF92FF920F931F93DF9330
:1015C000CF93CDB7DEB7C850D1400FB6F894DEBF89
:1015D0000FBECDBFCE01019668E070E040E050E064
:1015E000C7D73B812C819D818E817F8168856F83E8
:1015F00078878B839C832D833E83CE01099640E0C0
:1016000050E0B6D78F81988509968F739070892B9B
:1016100039F48091E8008B778093E8000E94CB1327
:101620008091E8008B778093E80082E08093E90066
:101630008091EC0081608093EC008091F50288231A
:1016400079F589818330A9F0843028F4813069F0FC
:101650008230A9F40CC0853031F0853008F44CC0DC
:10166000863069F40AC088E048C044E209C04CE210
:1016700007C045E383E366E305C04AE101C04EE2EB
:1016800083E266E2EB80FC800D811E81AF80B8842E
:101690002A8199E0C92ED12CCC0EDD1E20D308C0A2
:1016A0004F8158858B819C81BE01675F7F4F27D515
:1016B000882311F090E001C093E080E58093F10071
:1016C00084E08093F1009093F1008091E8008E77A0
:1016D0008093E800C85FDE4F0FB6F894DEBF0FBE00
:1016E000CDBFCF91DF911F910F91FF90EF90DF90D1
:1016F000CF90BF90AF9008958CE44B815C816D8159
:101700007E81298553D3D4CFDF93CF93CDB7DEB776
:10171000C750D1400FB6F894DEBF0FBECDBFCE018B
:10172000019667E070E040E050E022D79A81EB81BB
:101730007C816D816A837B83EC839D833E812F81D5
:101740002E833F838091E8008B778093E80082E0CE
:101750008093E9008091EC0081608093EC0080919F
:10176000F502AE01485F5F4F882319F48E2F40D3F6
:1017700004C0CB01BA01A901FAD4882311F493E083
:1017800001C090E080E58093F10085E08093F10056
:101790009093F100992339F46E817F81CE010896F0
:1017A00040E050E037D78091E8008E778093E800E2
:1017B000C95FDE4F0FB6F894DEBF0FBECDBFCF912D
:1017C000DF910895DF93CF93CDB7DEB729970FB69A
:1017D000F894DEBF0FBECDBF9091F100943009F4B4
:1017E000ADC0953048F49230A1F1933008F04DC06F
:1017F000913009F03DC10AC0963009F4A3C096307B
:1018000008F49EC0973009F033C1DEC08091E80033
:101810008B778093E80082E08093E9008091EC0070
:1018200081608093EC008091F502882311F4E0D36D
:1018300005C0823011F090E002C0D9D4982F80E525
:101840008093F10081E08093F10089278093F1007B
:101850000AC18091E8008B778093E8009093E900BB
:101860008091EC0081608093EC008091F5028823E8
:1018700011F4B3D301C0B0D480E58093F10082E0CD
:101880008093F1001092F100EEC0CE01059665E064
:1018900070E040E050E06CD6588549857E816F81CC
:1018A0004E835F83688779878091E8008B77809388
:1018B000E80082E08093E9008091EC0081608093F1
:1018C000EC008091F5029D81882339F59430C1F0B8
:1018D000953038F4923071F0933080F49130D1F437
:1018E0000BC0963089F0963068F0973079F09830D8
:1018F00089F40EC080E20FC080E40DC088E60BC002
:1019000080E309C082E207C08AE205C082E303C027
:1019100088E101C080E0BCD207C0913011F084E1C1
:1019200001C080E1BA01D0D3882311F090E001C05A
:1019300093E080E58093F10083E091C038DE98C0A9
:10194000E3DE96C0CE01059661E070E040E050E035
:101950000FD68091E8008B778093E80082E0809337
:10196000E9008091EC0081608093EC008091F502A9
:10197000882311F091E013C08D81813021F08230F5
:1019800021F489E303C088E301C088E7BE016F5FEB
:101990007F4FEBD2882311F493E001C090E080E503
:1019A0008093F10086E08093F1009093F1009923F9
:1019B00009F059C089819A81AB81BC819D0144277E
:1019C00055272093F1004BC08091F100833039F10D
:1019D000843028F4813049F0823029F417C08430F3
:1019E00019F1853031F191E029C03091F100209159
:1019F000F1009091F1008091F1008093C1019093EA
:101A0000C2012093C3013093C40117C09091F1002B
:101A10008091F1008093C5019093C6010EC0809122
:101A2000F1008093C70109C08091F1008093C80143
:101A300004C08091F1008091F10090E08091E80075
:101A40008B778093E80082E08093E9008091EC003E
:101A500081608093EC0080E58093F10087E08093C3
:101A6000F1009093F1008091E8008E778093E80078
:101A700029960FB6F894DEBF0FBECDBFCF91DF9190
:101A80000895DF93CF930F92CDB7DEB784E961E27B
:101A90000E94FC04CE01019661E070E040E050E05D
:101AA00067D58091E8008B778093E80082E080938F
:101AB000E9008091EC0081608093EC009981909323
:101AC000F50281E58093F100913011F480EC01C0C2
:101AD00080E08093F1008091E8008E778093E800A9
:101AE0000F90CF91DF9108954D99FECF4D9BFECF82
:101AF0004D99FECF5B9A539A8091C9008F7E809357
:101B0000C9008091C90088608093C90081E08093FA
:101B1000FB0208958091FB02882309F4E5DF80E051
:101B20004D99FECF4D9BFECF4D99FECF8F5F8C30F0
:101B3000B9F708951092FB02249A2C9880E991E05D
:101B40000197F1F78AB188628AB9529883E090E0F0
:101B50009093CD008093CC0088E08093C9008FE6FD
:101B60008093CA00D7DFD6CF1092FB028AB1886279
:101B70008AB952985B9A80E991E00197F1F783E086
:101B800090E09093CD008093CC0088E08093C900D2
:101B90008FE68093CA00BEDFBDCF1F93182F8091C0
:101BA000FB02882309F4A0DF8091C80085FFFCCFE9
:101BB0008091C80080648093C8001093CE001F916C
:101BC00008958091C80086FFFCCF8091C800806492
:101BD0008093C8008091C900877F8093C90080915D
:101BE000C90080618093C90053985B981092FB02F2
:101BF00008958091FB02882309F0E3DF8091C800FB
:101C000087FD03C08AB58823C9F78091CE00089567
:101C10008091FB02882309F0D4DF8091C800806C9A
:101C20008093C8001092C9001092CA008AB1877DC3
:101C30008AB98BB1837D8BB924982C9808958091B3
:101C4000FB02882309F0BDDF80EC8093C80010926E
:101C5000C9001092CA008AB1877D8AB98BB1837D91
:101C60008BB90895EF92FF920F931F937B018C0124
:101C7000862F93DFBB27A12F902F8F2D8EDFC801DA
:101C8000AA27BB278ADFE12EFF24002711278E2DEC
:101C900084DF1F910F91FF90EF90089590E0A0E0F6
:101CA000B0E02091C1013091C2014091C301509137
:101CB000C401822B932BA42BB52BBC01CD01D2CF19
:101CC0008BE66BDF8FE0EADF80E267DF92DF982F41
:101CD0008AB5882319F097FDF7CF81E008957F92A8
:101CE0008F929F92AF92BF92CF92DF92EF92FF922C
:101CF0000F931F93CF93DF93882E962E742EE601B9
:101D0000D22E20FF10C0DCDF882309F440C08CE411
:101D100044DF8AE0C3DF892D40DF8CE43EDF8BE0C7
:101D2000BDDF81E03ADFA114B104E9F0C9DF882307
:101D300071F18CE432DF8AE0B1DF882D2EDF8BE693
:101D40002CDFC801B7018EDF80EA27DF8A2D8150A2
:101D500024DF84E622DF899120DF0894A108B108FE
:101D6000A114B104C1F7D1FE10C0AADF882379F015
:101D70008CE413DF8AE092DF872D0FDF8CE40DDF28
:101D8000C801B7016FDF80E008DF81E001C080E0BB
:101D9000DF91CF911F910F91FF90EF90DF90CF9047
:101DA000BF90AF909F908F907F900895CF92DF92D9
:101DB000EF92FF920F931F93D82E7A018B01C22EC0
:101DC0007FDF882371F08CE4E8DE8AE067DF8D2D09
:101DD000E4DE8CE4E2DEC801B70144DF8C2DDDDEF9
:101DE00081E01F910F91FF90EF90DF90CF900895C9
:101DF000CF92DF92EF92FF920F931F93CF93DF93D7
:101E00007B018C016A01E9015BDF882369F18CE4C5
:101E1000C4DE8AE043DF83E4C0DEC230D105C8F00F
:101E20008BE6BBDEC801B7011DDF80EAB6DE9E018E
:101E30002150822FB2DE84E2B0DE06C0DADEF60187
:101E400081936F01209769F08AB521978823B1F7B4
:101E500008C08CE0A2DEC801B70104DFCADEF601CB
:101E600080838AB5811181E0DF91CF911F910F911D
:101E7000FF90EF90DF90CF90089580E88EDEB9DE7E
:101E8000982F8AB5882319F091FFF7CF81E0089544
:101E9000CF92DF92EF92FF921F93182F6A017B017E
:101EA0000FDF882309F45AC0103431F48CE475DE56
:101EB0008AE0F4DE80E439C0103309F03DC08CE4E0
:101EC0006CDE8AE0EBDE86E368DE8CE466DE8BE0C7
:101ED000E5DE81E062DEF4DE882309F43FC08CE4B5
:101EE0005CDE8AE0DBDE83E358DE8BE656DEC7018C
:101EF000B601B8DE80EA51DE8091C50181504DDE29
:101F000084E64BDE10E003C080E047DE1F5F212F38
:101F100030E08091C5019091C60128173907A0F3E0
:101F20008CE43BDE8AE0BADE80E337DE8CE435DE2B
:101F30008BE0B4DE81E00CC08CE42FDE8AE0AEDE04
:101F4000812F2BDE8CE429DEC701B6018BDE80E019
:101F500024DE93DF882319F081E001C080E01F9127
:101F6000FF90EF90DF90CF9008951F93CF93DF9372
:101F7000182FEB01188219821A821B82A1DE882396
:101F800039F18CE40ADE8AE089DE812F06DE8CE4FA
:101F900004DE8BE083DE81E000DE6FDF8823C1F0AA
:101FA0008FDE8823A9F08BE6F8DD84E077DE80EA17
:101FB000F4DD82E0F2DD84E2F0DD1BDE888319DEF1
:101FC000898317DE8A838AB5882319F081E001C0EE
:101FD00080E0DF91CF911F9108954FDF81ECDDDD2F
:101FE00080E0DBDD81E8D9DD04DE8823B9F727CE88
:101FF000EF92FF920F931F93DF93CF93CDB7DEB78E
:1020000028970FB6F894DEBF0FBECDBFADDD81ECD3
:10201000C4DD89E5C2DD82ECC0DD82E0BEDD80EE9C
:10202000BCDD8E01085F1F4F7E010894E11CF11C8E
:10203000D701E9ECF1E088E001900D928150E1F7E1
:10204000F8018081AADD015010400C171D0781F7AF
:1020500014DF28960FB6F894DEBF0FBECDBFCF9128
:10206000DF911F910F91FF90EF900895282F8F70AF
:10207000806930E020733070220F331F822B8DCDAA
:102080000F931F93182F092F88E687DD812F85DD99
:1020900089E683DD802F81DD1F910F9108952091C6
:1020A000C801822F8F70806130E020733070220F62
:1020B000331F822B72DD9DDD982F8AB5882319F09E
:1020C00097FDEDCF81E008951F93CF93DF93182FF5
:1020D000EB01E5DF882379F08091C701C7DF812F0D
:1020E0005CDDCE018160CCDF80E657DD80E055DD30
:1020F000D6DF811181E0DF91CF911F910895EF929A
:10210000FF920F931F93CF93DF937C018B01EA0122
:10211000C6DF882321F1C0FF06C0F801EC0FFD1FC8
:102120008FEF808321968091C701A0DF8DE135DD9F
:10213000C701A6DF10C0B3DF882389F084E62DDD58
:10214000F80180812ADD84E628DDF80181810E5FB7
:102150001F4F23DD2297209771F781E001C080E0B7
:10216000DF91CF911F910F91FF90EF900895EF9223
:10217000FF920F931F93CF93DF938C017B01EA01B2
:102180008EDF8823B9F08091C70170DF80E005DD24
:10219000C80176DF06C084E200DD2BDDF701819304
:1021A0007F01209721F08AB521978823A1F78AB56E
:1021B000811181E0DF91CF911F910F91FF90EF90FE
:1021C000089580E8EADC15DD982F8AB5882319F098
:1021D00091FFF7CF81E00895F4DF80ECDEDC80E052
:1021E000DCDC80E8DADC05DD8823B9F711CDEF927D
:1021F000FF920F931F93DF93CF93CDB7DEB728974E
:102200000FB6F894DEBF0FBECDBF94DC82ECC5DC08
:1022100082E0C3DC80EEC1DC8E01085F1F4F7E01CF
:102220000894E11CF11CD701E1EDF1E088E0019098
:102230000D928150E1F7F8018081AFDC0150104030
:102240000C171D0781F7BDDF28960FB6F894DEBF87
:102250000FBECDBFCF91DF911F910F91FF90EF90F7
:1022600008959C01409104035091050346175707B8
:1022700018F4F90190E03CC06115710511F0AB0153
:10228000F8CF8091E8008E778093E80040E050E03E
:10229000F0CF8EB3882309F440C0853009F43FC0E5
:1022A0008091E80083FD3DC08091E80082FD2FC051
:1022B0008091E80080FF1CC08091F200282F30E060
:1022C00007C081918093F100415050402F5F3F4FF4
:1022D0004115510519F02031310598F390E0203176
:1022E000310509F491E08091E8008E778093E80051
:1022F0004115510571F6992361F609C08EB3882303
:1023000061F0853061F08091E80083FD0AC0809122
:10231000E80082FFF3CF80E0089582E0089583E033
:10232000089581E008959C014091040350910503B4
:102330004617570718F4F90190E03DC06115710583
:1023400011F0AB01F8CF8091E8008E778093E80020
:1023500040E050E0F0CF8EB3882309F441C08530CF
:1023600009F440C08091E80083FD3EC08091E80000
:1023700082FD30C08091E80080FF1DC08091F20096
:10238000282F30E008C084918093F10031964150AD
:1023900050402F5F3F4F4115510519F02031310555
:1023A00090F390E02031310509F491E08091E8004C
:1023B0008E778093E8004115510569F6992359F607
:1023C00009C08EB3882361F0853061F08091E80008
:1023D00083FD0AC08091E80082FFF3CF80E008957A
:1023E00082E0089583E0089581E00895EF92FF92DE
:1023F0000F931F93CF93DF939C01009104031091DF
:1024000005030617170718F4790190E03EC061151F
:10241000710511F08B01F8CF8091E8008E778093E1
:10242000E80000E010E0F0CF8EB3882309F442C04A
:10243000853009F441C08091E80083FD3FC0809160
:10244000E80082FD31C08091E80080FF1EC08091CD
:10245000F200C82FD0E00AC0C70168D58093F10010
:102460000894E11CF11C0150104021960115110542
:1024700019F0C031D10580F390E0609709F491E044
:102480008091E8008E778093E8000115110561F6D0
:10249000992351F609C08EB3882361F0853061F02D
:1024A0008091E80083FD0AC08091E80082FFF3CFAD
:1024B00080E005C082E003C083E001C081E0DF91DD
:1024C000CF911F910F91FF90EF900895BF92CF92FF
:1024D000DF92EF92FF920F931F93CF93DF938C01C4
:1024E000EB016A0158D1B82E8823B9F521970C0F5A
:1024F0001D1F2196C114D10439F0F601808191810C
:10250000C81BD90B081B190BEE24FF2424C0809193
:10251000E80085FD16C08091E8008B778093E80085
:1025200064D3C114D10449F0F601808191818E0DEC
:102530009F1D9183808385E011C02DD1882359F0A0
:102540000DC08091F100F801808301501040219767
:102550000894E11CF11C2097D1F68B2DDF91CF91CF
:102560001F910F91FF90EF90DF90CF90BF90089553
:10257000BF92CF92DF92EF92FF920F931F93CF9370
:10258000DF93182F092F7B016A0105D1B82E88230C
:10259000B1F5812F902F9C01E901C114D10439F0CC
:1025A000F60180819181E81AF90AC80FD91F00E06D
:1025B00010E022C08091E80085FD16C08091E800FF
:1025C0008B778093E80011D3C114D10449F0F60150
:1025D00080819181800F911F9183808385E010C05D
:1025E000DAD0882349F00CC08091F10089930894D7
:1025F000E108F1080F5F1F4FE114F104D9F68B2DAC
:10260000DF91CF911F910F91FF90EF90DF90CF90CE
:10261000BF900895BF92CF92DF92EF92FF920F93F7
:102620001F93CF93DF93182F092F7B016A01B3D03B
:10263000B82E8823B1F5812F902F9C01E901C11498
:10264000D10439F0F60180819181E81AF90AC80FA6
:10265000D91F00E010E022C08091E80085FD16C07F
:102660008091E8008E778093E800BFD2C114D10436
:1026700049F0F60180819181800F911F91838083C1
:1026800085E010C088D0882349F00CC089918093E0
:10269000F1000894E108F1080F5F1F4FE114F10405
:1026A000D9F68B2DDF91CF911F910F91FF90EF9075
:1026B000DF90CF90BF9008958F708093E900809154
:1026C000EB0081608093EB001092ED006093EC00D2
:1026D0004093ED008091EE00881F8827881F0895A1
:1026E0000F931F93CF93DF93062FEC0110E02AC0C6
:1026F0009881992329F16B81E981FA812C81892FB5
:102700008F70853018F5223010F452E001C056E089
:1027100040E028E030E003C04F5F220F331F2E1748
:102720003F07D0F36295660F660F607C991F99276B
:10273000991F692B4295407F452BBEDF882331F0DE
:102740001F5F25961017A0F281E001C080E0DF91A5
:10275000CF911F910F9108958091FE0288238CF4F0
:1027600003C08EB38823B1F08091E80082FFF9CFD7
:102770008091E8008B778093E80008958EB38823DA
:1027800049F08091E80080FFF9CF8091E8008E77D2
:102790008093E80008954091E4005091E50024E61C
:1027A0008091EC0080FF23C08091E80080FD1DC077
:1027B0008EB3882311F482E00895853011F483E00C
:1027C00008958091EB0085FF02C081E0089580911B
:1027D000E4009091E5008417950711F3222311F48A
:1027E00084E008952150AC01DBCF80E00895809112
:1027F000E80082FFDDCFF9CF3CD03ED08091D800F9
:102800008F778093D8008091D80080688093D8001B
:102810008091D8008F7D8093D80084E089BD86E0C8
:1028200089BD09B400FEFDCF1EBA1092FC0280E003
:1028300060E042E141DF8091E1008E7F8093E10022
:102840008091E20081608093E2008091E2008860E4
:102850008093E2008091E0008E7F8093E0000895F5
:10286000E3E6F0E080818E7F808381E08093FD024B
:10287000C3CF1092E20008951092E10008951F92D4
:102880000F920FB60F9211242F933F934F935F93A4
:102890006F937F938F939F93AF93BF93EF93FF9328
:1028A0008091E10080FF17C08091E20080FF13C09B
:1028B0008091E2008E7F8093E2008091E20080614F
:1028C0008093E2008091D80080628093D80019BC88
:1028D0001EBA0E94A4018091E10084FF2FC0809164
:1028E000E20084FF2BC084E089BD86E089BD09B485
:1028F00000FEFDCF8091D8008F7D8093D80080911D
:10290000E1008F7E8093E1008091E2008F7E8093D2
:10291000E2008091E20081608093E2008091FC02FD
:10292000882311F084E007C08091E30087FD02C096
:1029300081E001C083E08EBB0E94A2018091E10092
:1029400083FF21C08091E20083FF1DC08091E100E0
:10295000877F8093E10082E08EBB1092FC02809121
:10296000E1008E7F8093E1008091E2008E7F809372
:10297000E2008091E20080618093E20080E060E00C
:1029800042E19ADE31D1FF91EF91BF91AF919F91DA
:102990008F917F916F915F914F913F912F910F9008
:1029A0000FBE0F901F9018951F93DF93CF9300D009
:1029B0000F92CDB7DEB7EEEFF2E08091F100819398
:1029C00083E0E630F807C9F70E9434028091E800FE
:1029D00083FFF5C08091FE029091FF02953009F4CB
:1029E0006FC0963040F4913091F1913070F0933097
:1029F00009F0E5C02CC0983009F4B3C0993009F44F
:102A0000C2C0963009F0DBC07DC0803811F490E080
:102A100014C0823809F0D3C0809102038F70809374
:102A2000E9008091EB0090E025E0969587952A9546
:102A3000E1F7982F91701092E9008091E800877F6C
:102A40008093E8009093F1001092F10095C08823E4
:102A500019F0823009F0B3C08F71823009F0AFC035
:102A600080910003882331F5209102032F7009F42F
:102A7000A6C02093E9008091EB0080FF1BC093303B
:102A800021F48091EB00806213C08091EB008061A3
:102A90008093EB0081E090E002C0880F991F2A9597
:102AA000E2F78093EA001092EA008091EB008860E0
:102AB0008093EB001092E9008091E800877F5FC06F
:102AC000882309F07CC0109100031F778091E300F8
:102AD0008078812B8093E3008091E800877F80934A
:102AE000E8003ADE8091E80080FFFCCF8091E300AF
:102AF00080688093E300112311F482E001C083E039
:102B00008EBB5DC08058823008F059C080910003B0
:102B10009091010360910203AE014E5F5F4F9E01F1
:102B20002F5F3F4F0E942B02BC01009709F447C062
:102B30008091E800877F8093E8002981222321F497
:102B40008A819B81F0DB07C08A819B81213011F44F
:102B50004DDC01C086DB8091E8008B778093E80034
:102B60002EC0803861F58091E800877F8093E8006F
:102B70008091FC028093F1008091E8008E77809331
:102B8000E800EADD1CC08823D1F490910003923064
:102B9000B0F48091E800877F8093E8009093FC0276
:102BA000DBDD8091FC02882331F48091E30087FD16
:102BB00002C081E001C084E08EBB0E943D02809192
:102BC000E80083FF0AC08091E800877F8093E800D7
:102BD0008091EB0080628093EB000F900F900F903C
:102BE000CF91DF911F91089508951F938EB388238D
:102BF00071F01091E9008091EC001092E900809151
:102C0000E80083FF01C0D0DE1F701093E9001F9120
:102C10000895FC018EB3843029F584899589A689AD
:102C2000B7890097A105B105E9F086818F7080937F
:102C3000E9008091E80082FF15C08091F2008823AE
:102C400019F42FEF3FEF04C08091F100282F30E0FE
:102C50008091F200882341F48091E8008B77809383
:102C6000E80002C02FEF3FEFC90108950895FC016D
:102C70008EB3843019F584899589A689B789009720
:102C8000A105B105D9F081818F708093E900809111
:102C9000F2008823A9F09091E8008091E8008E77F7
:102CA0008093E80095FD0CC076DD982F882349F4C9
:102CB0008091E8008E778093E80003C092E001C025
:102CC00090E0892F0895FC018EB3843091F48489BB
:102CD0009589A689B7890097A105B10551F0818131
:102CE0008F708093E9008091E80080FF02C0CF01DF
:102CF000BECF08951F93FC01162F8EB38430E1F4EC
:102D000084899589A689B7890097A105B105A1F0A5
:102D100081818F708093E9008091E80085FD08C073
:102D20008091E8008E778093E80035DD882329F4D0
:102D30001093F10080E001C082E01F910895CF93CD
:102D4000DF93EC014096FC018BE0DF011D928A9538
:102D5000E9F782E08C83898783E08E87CE01019634
:102D600061E0BEDC882371F0CE01069661E0B8DC3C
:102D7000882341F0CE010B9661E0B2DC882319F084
:102D800081E001C080E0DF91CF910895CF93DF9380
:102D9000EC018091E80083FFA4C0888190E020913D
:102DA0000203309103032817390709F09AC0809174
:102DB000FF02813269F0823220F4803209F091C042
:102DC0003CC0823209F46BC0833209F08AC07BC0F8
:102DD0008091FE02813A09F084C08091E800877FEB
:102DE0008093E8008091E80080FFFCCF8C899D896A
:102DF000AE89BF898093F100292F3A2F4B2F552799
:102E00002093F1009D01442755272093F1008B2F3B
:102E10009927AA27BB278093F100888D8093F10022
:102E2000898D8093F1008A8D8093F1008091E80074
:102E30008E778093E80090DC54C08091FE0281324E
:102E400009F04FC08091E800877F8093E80004C0BC
:102E50008EB3882309F445C08091E80082FFF8CF43
:102E60008091F1009091F1002091F1003091F100FA
:102E70008C8B9D8B2E8B3F8B8091F100888F809166
:102E8000F100898F8091F1008A8F8091E8008B7723
:102E90008093E80061DCCE010E94E60122C08091AF
:102EA000FE028132F1F48091E800877F8093E80090
:102EB00053DC8091000390910103998B888BCE01A4
:102EC0000E94A6010EC08091FE02813251F48091D1
:102ED000E800877F8093E8003FDCCE01609100032B
:102EE000C5DEDF91CF910895A1E21A2EAA1BBB1B6C
:102EF000FD010DC0AA1FBB1FEE1FFF1FA217B307C6
:102F0000E407F50720F0A21BB30BE40BF50B661FDB
:102F1000771F881F991F1A9469F76095709580959F
:102F200090959B01AC01BD01CF010895F999FECFA9
:102F300092BD81BDF89A992780B50895262FF999F9
:102F4000FECF92BD81BDF89A019700B4021639F008
:102F50001FBA20BD0FB6F894FA9AF99A0FBE0895D9
:042F6000F894FFCF13
:102F64000083100000010410000001820800000129
:102F7400000000000000000000000009023E000202
:102F84000100C0320904000001020201000524000E
:102F94001001042402060524060001070582030823
:102FA40000FF09040100020A0000000705040210E2
:102FB4000005070583021000050902200001010035
:102FC400C0320904000002FF00000007058202402D
:102FD400000A0705020240000A1C033000300030DA
:102FE4000032003000300030003100320033003451
:102FF400003500000000004156524953505F4D4BCC
:1030040032008001008101009001009101019201D0
:10301400189401329803069E0301A10100A4030041
:1030240001C0010001200033321289AB45CDD8889C
:0A303400FF1289AB45CDD888FF00DC
:00000001FF
