S01300007775657266656C2D736D642E73726563A6
S113000009C0C5C015C0ACC013C012C011C010C017
S11300100FC00EC011241FBECFE9CDBF20E0A0E663
S1130020B0E001C01D92A236B207E1F72CD0C5C0E2
S1130030E7CF98B39D6198BB823081F028F4882380
S113004049F0813049F00895843071F050F08530E2
S113005071F00895C3980895C498089588B3877E6D
S113006008C088B38B7E05C088B3837E02C088B382
S11300708A7E88BB0895009729F028EC2A95F1F729
S11300800197F9CF08958DE187BBC19A83B7816049
S113009083BF89B7826089BF789487E0D82E96E0C1
S11300A0F92E809160009091610081329E4498F015
S11300B087E0BFDF8BB780648BBF85B7877E8061A5
S11300C085BF85B7806285BF889585B78F7D85BFDD
S11300D08BB78F7B8BBFB199E4CF88EC90E0CBDFFB
S11300E0B19937C0C2B78C2F6F2D5BD0E92ED92EB2
S11300F0B1990FC0D0E08D2F8C0F6F2D52D0C92F26
S1130100892F97DF84E190E0B6DFDF5FD73099F77E
S1130110EFCFC0E0D0E000E010E0C8014496ABDFD0
S11301208C2F6F2D3ED0892F84DF0C0F1D1F21963D
S1130130C231D10591F7C8019EDF8E2D7ADF80E9A7
S113014091E099DF87E075DF88EC90E094DF8E2DF5
S113015001C08D2D6EDF1092610010926000A1CF5E
S11301601F920F920FB60F9211248F939F93809139
S1130170600090916100019690936100809360000B
S11301809F918F910F900FBE0F901F9018951F9203
S11301900F920FB60F9211240F900FBE0F901F9065
S11301A01895991B79E004C0991F961708F0961BBF
S11101B0881F7A95C9F780950895F894FFCFBB
S9030000FC
