:10000000F5C10FC20EC20DC20CC20BC277C69DC68F
:1000100008C207C206C2C6C64AC603C202C201C29D
:1000200000C2FFC1FEC10A0D00200044616E6B6575
:100030002C206461737320536965207369636820A1
:1000400066756572206461732061546556614C2D3C
:10005000426F61726420766F6E206548614A6F2E30
:10006000646520656E74736368696564656E206895
:100070006162656E2E0042697474652070727565E8
:1000800066656E20536965206E6F63682065696ED2
:100090006D616C2064696520506C6174696E6500E7
:1000A0004D69742064696573656D206B6C65696E5C
:1000B000656E2050726F6772616D6D206B616E6E40
:1000C000206E756E206469652067657261646520C5
:1000D00061756667656261757465204861726477F1
:1000E00061726520676574657374657477657264A1
:1000F000656E2E200045732077657264656E206EF4
:10010000756E20646965204C45443120756E64200D
:100110004C454432206765746573746574000A0D3C
:100120000053696520686162656E20646965204CD2
:1001300045443120756E64204C454432206572661A
:100140006F6C677265696368206765746573746551
:10015000742C206775742067656D616368742E0068
:10016000457320747574206D6972206C6569642C08
:10017000206162657220646965204C454431206FBE
:10018000646572204C454432206C65756368746503
:1001900074206E69636874005369652068616265E4
:1001A0006E206469652054617374657231206269E0
:1001B000732054617374657233206572666F6C6767
:1001C00072656963682067657465737465742C2053
:1001D0006775742067656D616368742E00457320D0
:1001E000747574206D6972206C6569642C2061627D
:1001F0006572206469652054617374657220617250
:1002000062656974656E206E69636874206B6F72D5
:1002100072656B742E0045732077697264206E7569
:100220006E20646572204C617574737072656368CA
:100230006572206765746573746574005369652021
:10024000686162656E2064656E204C6175747370C0
:10025000726563686572206572666F6C6772656946
:1002600063682067657465737465740045732074F2
:100270007574206D6972206C6569642C20616265FB
:100280007220646572204C61757473707265636866
:1002900065722073636865696E74206B65696E654D
:1002A0006E20546F6E20766F6E2073696368207ABB
:1002B0007520676562656E2C0045732077697264EE
:1002C000206E756E2064617320506F74656E746962
:1002D0006F6D6574657231206D697420646572207C
:1002E000426573636872696674756E672052312067
:1002F000756E642064617300506F74656E74696F0D
:100300006D6574657232206D697420646572204277
:100310006573636872696674756E67205232206710
:10032000657465737465742E00457320747574204C
:100330006D6972206C6569642C206162657220644D
:10034000657220506F74656E74696F6E6574657246
:1003500031206F646572203220686162656E2065AD
:10036000696E656E204665686C65722C00310032DE
:1003700000310032003100320031003200310032F1
:1003800000310032003100320033003A204F6B61FF
:100390007900546173746572003A204665686C6533
:1003A00072004C6564005A7573616D6D656E6661AF
:1003B0007373756E672064657320546573746C6124
:1003C000756673004C6175747370726563686572ED
:1003D0003A204F6B6179004C61757473707265637C
:1003E0006865723A204665686C65720011241FBE0C
:1003F000CFE5D4E0DEBFCDBF10E0A0E6B0E0E6EB95
:10040000FEE002C005900D92A037B107D9F720E0B9
:10041000A0E7B0E001C01D92AE37B207E1F7F3D319
:1004200048C50BC484B38C7F84BB85B38C7F85BBEC
:100430003E9A86B1836086B9379A369A3699FECF4E
:10044000089597B1907F97B997B18F70892B87B92D
:10045000369A3699FECF24B135B1C90108958CB1D1
:1004600080937000089510927000809170008D301C
:10047000E1F708958FEF80937000809170008F3FB7
:10048000E1F38091700008951092700080917000E7
:100490008A3621F0809170008E36C1F7809170000D
:1004A00071D480917000089586E290E0EDC4CF93FE
:1004B000C0E581E267D4C150E1F7CF91F5CFCF938A
:1004C000DF93D82F5FD4CCE180E25CD4C150E1F758
:1004D0008AED91E0CCD4C2E280E254D4C150E1F77D
:1004E0008D2F50D4DF91CF91DFCF81E2E8CF83E22F
:1004F000E6CFCF93DF93D82F45D4CEE480E242D429
:10050000C150E1F78D2F3ED4DF91CF91CDCF81E265
:10051000F0CF83E2EECFCF93C0E583E233D4C15076
:10052000E1F7CF91C1CFC0DFBFDFBECF82ED91E059
:100530009EC480EC91E09BC4CF93C82F8EEB91E0DA
:1005400096D48C2FCF911EC41DD489E290E09CC418
:10055000CF93C82F80917100811108C00EC080E236
:1005600011D4909171009F5F909371008091710000
:100570008E34A8F38C2FE0DF97DF10927100CF91BB
:100580000895FF920F931F93CF93DF93EC01F62E04
:10059000042F453611F0453421F4CE0182D4182FB2
:1005A00033C0FC01149130C080917100882321F088
:1005B000809171008D34B1F4809171008D3419F403
:1005C0008F2DBADF02C08F2DBFDF909171009F5F2A
:1005D00090937100809171008E34B1F465DF1092B8
:1005E000710012C0053611F0053421F4CE0159D442
:1005F000182F02C0FE011491812FC4D3219690912F
:1006000071009F5F909371001111CECFDF91CF9158
:100610001F910F91FF900895EF92FF921F93CF9338
:10062000DF931F92CDB7DEB77C01162F809171004A
:10063000882321F0862F49838BDF49811092710036
:10064000612FC7019EDF812F0F90DF91CF911F9106
:10065000FF90EF907DCF46E463E28BE290E0DCCF49
:1006600046E461E286E790E0D7CF80EB91E0FFC3FC
:10067000CF9351DF46E463E285EF90E0CDDF4BDFBF
:1006800052DF81E0EDD284E991E0F1D3FDDE8E36D8
:1006900021F010926400C0E001C0C1E08EE191E061
:1006A000F3D380E0DDD281E0E1D288E791E0DFD3CF
:1006B000EBDE8E3611F4CF5F02C010926300F4DEE1
:1006C00080E0D4D230DFC1110AC025DF22DF46E44A
:1006D00063E281E291E0A0DF1CDF1DDF0AC0E7DEFC
:1006E00016DF46E461E280E691E096DFB9DF0FDFD6
:1006F000DEDECF9118CFCF93DF930DDF45E463E2C9
:100700008BEF90E089DF45E463E28DEB90E084DFDE
:10071000EEDE01DF08DFA7DE81E691E0A8D3C0E0CE
:10072000ABD2811109C089E698E10197F1F700C0C9
:100730000000CF5FCA3FA1F7C150C93F30F0F9DEDA
:100740008FE291E094D3C1E004C0F0DE1092670024
:10075000C0E08AE491E08BD3D0E097D2811109C048
:1007600089E698E10197F1F700C00000DF5FDA3F0A
:10077000A1F7D150D93F30F0DCDE8BE291E077D3A6
:10078000CF5F03C0D3DE1092660083E391E06FD3A6
:10079000D0E084D2811109C089E698E10197F1F790
:1007A00000C00000DF5FDA3FA1F7D150D93F30F041
:1007B000C0DE87E291E05BD3CF5F03C0B7DE10926B
:1007C0006500B1DEC1110BC0A6DEA3DE46E463E224
:1007D00088E991E021DF8BDE9CDE9DDE0AC067DECA
:1007E00096DE46E461E28DED91E016DF39DF7DDED5
:1007F0005EDE99DEDF91CF9136CE8DDE8ADE46E475
:1008000063E286E192E008DF72DE83DE84DE2BDEC7
:10081000ABD289DE8FE290E02AD336DE8A3671F4DD
:1008200082DE79DE76DE46E463E28CE392E0F4DE9B
:100830005EDE71DE18DE109260000DC074DE37DE01
:1008400066DE46E461E28CE692E0E6DE09DF5FDE2A
:100850004CDE2DDE08DE67CEFF920F931F93CF9301
:10086000DF93FF24F3948111F12C8F2DEADDEC014D
:100870008F2DE7DD459708F066C089E190E0F7D25B
:10088000F4DEFF2019F08DE693E002C08FE693E0DE
:10089000FBD28DE090E0EBD287E090E0E8D204DE7E
:1008A0008F2DCFDDEC0100E010E00BC083EC99E070
:1008B0000197F1F700C000008F2DC3DDEC010F5F41
:1008C0001F4FCF3A92E0D90728F4083B8BE0180776
:1008D00069F7A2C0083B1B4009F49EC089E190E083
:1008E000C6D2C3DEFF2019F081E793E002C083E7A0
:1008F00093E0CAD28DE090E0BAD280E090E0B7D227
:10090000D3DD00E010E00BC083EC99E00197F1F734
:1009100000C000008F2D95DDEC010F5F1F4F659724
:1009200028F0083B9BE0190779F776C0083B1B408D
:1009300009F472C09ADEFF2019F085E793E063C0E6
:1009400087E793E060C089E190E091D28EDEFF20DE
:1009500019F089E793E002C08BE793E095D28DE030
:1009600090E085D280E090E082D29EDD00E010E051
:100970000BC083EC99E00197F1F700C000008F2DC8
:1009800060DDEC010F5F1F4FC531D10528F0083B3A
:100990009BE0190771F740C0083B1B40E9F189E172
:1009A00090E065D262DEFF2019F08DE793E002C08F
:1009B0008FE793E069D28DE090E059D287E090E034
:1009C00056D272DD00E010E00BC083EC99E0019795
:1009D000F1F700C000008F2D34DDEC010F5F1F4FD9
:1009E000CF3AD24028F4083B8BE0180771F714C0C7
:1009F000083B1B4089F039DEFF2019F081E893E0C5
:100A000002C083E893E040D291DDFF2019F01092FC
:100A1000620002C010926100DF91CF911F910F918F
:100A2000FF90089578DD75DD46E463E289EB92E09E
:100A3000F3DD46E463E288EF92E0EEDD58DD6BDD46
:100A400012DD71DD80E008DF81E006DF8091620069
:100A5000813021F080916100813069F464DD27DD0F
:100A600056DD46E461E289E293E0D6DDF9DD4FDD53
:100A70003CDD1DDDF8CC089546E463E285E893E0B3
:100A800080CD46E463E287E893E07BCD46E463E211
:100A900089E893E076CD46E463E28BE893E071CD9C
:100AA00046E463E282E993E06CCD46E463E289E9DF
:100AB00093E067CD46E463E282EA93E062CD33DD02
:100AC0002ADD27DDC8DD46E463E286EA93E0A4DDA3
:100AD000E7DFD2DF809171008250809371008091B6
:100AE0006700811102C0D7DF01C0DFDF83E230DDA4
:100AF000D7DFC7DF809171008250809371008091B1
:100B00006600811102C0C7DF01C0CFDF83E220DDB4
:100B1000C7DFBCDF80916500811102C0BCDF01C06E
:100B2000C4DF8091710082508093710083E210DDF8
:100B3000C1DFA2DF80916400811102C0ACDF01C07F
:100B4000B4DF8091710082508093710083E200DDF8
:100B5000B1DF97DF80916400811102C09CDF01C08A
:100B6000A4DF8091710082508093710083E2F0DCF9
:100B700083E2EADC7ADD88E690E06ED180E1809362
:100B8000710080916200811102C085DF01C08DDF9C
:100B900083E2DEDC83E2D8DC68DD8BE690E05CD1CA
:100BA00080E18093710080916100811102C073DF48
:100BB00001C07BDF83E2CCDC8091600046E463E22D
:100BC000811103C084EC93E002C087ED93E024DD43
:100BD000A0DCA1DCA8DCA7CC8FE292E0D7D09BDC24
:100BE0003ADD46E463E280EA90E016DD92DC7FDCE9
:100BF00092DC99DC3FDC8D3009F0CEC07CDD38DD45
:100C000011DFFBDD5CCFCF93DF9300D000D000D0AD
:100C1000CDB7DEB78CE090E09A83898381E08B8347
:100C200083E08C831D821E82CE010196E6D00FD018
:100C3000F9DB7894D1DFF894FFCF1F920F920FB6B3
:100C40000F9211240F900FBE0F901F90189511BA9C
:100C500012BA81B3806E81BB82B38C6182BB08956E
:100C6000811102C096980895969A0895811102C044
:100C700095980895959A089520B322FB882780F9C6
:100C800090E021E082278170089520B323FB88271C
:100C900080F990E021E082278170089520B324FB41
:100CA000882780F990E021E08227817008951F92C3
:100CB0000F920FB60F9211242F933F934F935F9390
:100CC0006F937F938F939F93AF93BF93EF93FF9314
:100CD000E0917200F09173000995FF91EF91BF913F
:100CE000AF919F918F917F916F915F914F913F91C4
:100CF0002F910F900FBE0F901F9018951F920F927B
:100D00000FB60F9211242F933F934F935F936F93DE
:100D10007F938F939F93AF93BF93EF93FF93E09154
:100D20007400F09175000995FF91EF91BF91AF911B
:100D30009F918F917F916F915F914F913F912F91F3
:100D40000F900FBE0F901F9018951F920F920FB625
:100D50000F9211248F9382B3805882BB8F910F9092
:100D60000FBE0F901F90189588EE93E022B3205885
:100D700022BBE3EFF1E03197F1F700C000000197EB
:100D8000A9F708955D9BFECF8CB9089590937D00DF
:100D900080937C00579A0895579810927D00109286
:100DA0007C0008951F920F920FB60F9211242F937B
:100DB0003F934F935F936F937F938F939F93AF93E3
:100DC000BF93EF93FF93E0917C00F0917D0030970B
:100DD00011F0099501C08CB1FF91EF91BF91AF91D6
:100DE0009F918F917F916F915F914F913F912F9143
:100DF0000F900FBE0F901F901895FC01908181817C
:100E000099B980BD88E18AB980E880BDA481A150EC
:100E1000A23028F4B0E0A259BF4F8C9101C080E805
:100E20009381923061F028F4992371F0913059F454
:100E300008C0933041F0943031F4866004C084607F
:100E400003C0826001C0866080BD8281882311F06A
:100E5000599A089559980895CF93DF93EC0101C0F2
:100E600091DF89918111FCCFDF91CF910895CF93CC
:100E7000DF93EC0101C086DFCE0113D021968111F2
:100E8000FACFDF91CF910895CF93DF93EC01FE016C
:100E900084912196882311F075DFF9CFDF91CF91EE
:100EA0000895E199FECF9FBB8EBBE09A99278DB341
:060EB0000895F894FFCF45
:100EB6000101010101010101203100203200A08160
:00000001FF
